:1000000010C02AC029C028C027C026C025C024C0CF
:1000100023C023C021C020C01FC01EC01DC01CC0E3
:100020001BC011241FBECFE5D2E0DEBFCDBF10E064
:10003000A4E6B0E001C01D92AB37B107E1F710E0D4
:10004000A0E6B0E0E2E0F9E002C005900D92A4362F
:10005000B107D9F73BD153C4D3CF1F920F920FB63C
:100060000F9211242F938F939F9312BE80916C0057
:100070008F5F8F7780936C0020916B0090916C0064
:1000800081E0921708F080E020916A0090916C0066
:10009000921710F492E001C090E0892B2091690042
:1000A00090916C00921710F494E001C090E0982BAE
:1000B0002091680080916C00821710F488E001C0E4
:1000C00080E0892B8BBB9F918F912F910F900FBE5A
:1000D0000F901F9018954F925F926F927F928F9220
:1000E0009F92AF92BF92CF92DF92EF92FF926B01FD
:1000F0007C01B42E8EE7C81681E0D806E104F10435
:1001000038F08DE7C81A81E0D80AE108F108F2CF8B
:1001100080E8C816D104E104F104E8F46FE770E068
:1001200080E090E06C197D098E099F09E0D1609311
:100130007500709376008093770090937800C701E4
:10014000B601D5D1609371007093720080937300F3
:10015000909374004CC0D701C60180589109A10941
:10016000B1098F379105A105B10508F56EEF70E073
:1001700080E090E06C197D098E099F09B8D16093E9
:100180007100709372008093730090937400C701A4
:10019000B6016F57710981099109A9D160936D006A
:1001A00070936E0080936F009093700020C06DE795
:1001B00071E080E090E06C197D098E099F0997D16C
:1001C00060936D0070936E0080936F009093700049
:1001D000C701B6016E5F71098109910988D16093E9
:1001E00075007093760080937700909378006B2D64
:1001F00070E080E090E07DD16B017C012091750082
:10020000309176004091770050917800FED120E047
:1002100030E04EEF52E4D7D02B013C0160937500E3
:10022000709376008093770090937800209171000E
:10023000309172004091730050917400C701B60173
:10024000E4D120E030E04EEF52E4BDD04B015C0140
:1002500060937100709372008093730090937400A8
:1002600020916D0030916E0040916F0050917000B0
:10027000C701B601CAD120E030E04EEF52E4A3D06E
:100280006B017C0160936D0070936E0080936F0032
:1002900090937000C301B201FED060936B00C50162
:1002A000B401F9D060936A00C701B601F4D060933D
:1002B0006900FF90EF90DF90CF90BF90AF909F903C
:1002C0008F907F906F905F904F90089581E083BFF3
:1002D00082E089BF8FE086BF78948ABB1BBA8FEF1C
:1002E00087BB18BA10927A001092790081E090E0F2
:1002F0003BD2C12CD12C7601812C912C5401CCEF16
:10030000D1E04FE7C701B601E6DEC814D904EA041C
:10031000FB0430F48FEFC81AD80AE80AF80AF1CFC4
:100320008C149D04AE04BF0430F481E0C81AD108D7
:10033000E108F108E6CF8DE7881681E09806A10470
:10034000B10460F48DE7C80E81E0D81EE11CF11CF9
:100350008DE7880E81E0981EA11CB11C01D2BE0160
:100360000BD08E5F9109AA2797FDA095BA2F880E12
:10037000991EAA1EBB1EC5CF97FB072E16F400942C
:1003800006D077FD08D00BD007FC05D03EF4909541
:1003900081959F4F0895709561957F4F0895AA1B91
:1003A000BB1B51E107C0AA1FBB1FA617B70710F060
:1003B000A61BB70B881F991F5A95A9F78095909592
:1003C000BC01CD0108950CD0E6C0DED040F0D5D000
:1003D00030F021F45F3F19F0C7C0511110C1CAC0FD
:1003E000EBD098F39923C9F35523B1F3951B550B23
:1003F000BB27AA2762177307840738F09F5F5F4FF8
:10040000220F331F441FAA1FA9F333D00E2E3AF038
:10041000E0E830D091505040E695001CCAF729D052
:10042000FE2F27D0660F771F881FBB1F26173707A1
:100430004807AB07B0E809F0BB0B802DBF01FF27D1
:1004400093585F4F2AF09E3F510568F08DC0D7C08A
:100450005F3FECF3983EDCF3869577956795B7950B
:10046000F7959F5FC9F7880F911D9695879597F926
:100470000895E1E0660F771F881FBB1F621773079F
:100480008407BA0720F0621B730B840BBA0BEE1FB4
:1004900088F7E095089598D088F09F5790F0B92F8D
:1004A0009927B751A0F0D1F0660F771F881F991FC9
:1004B0001AF0BA95C9F712C0B13081F09FD0B1E0FF
:1004C00008959CC0672F782F8827B85F39F0B93F0F
:1004D000CCF3869577956795B395D9F73EF49095CB
:1004E0008095709561957F4F8F4F9F4F0895E89449
:1004F00009C097FB3EF490958095709561957F4F6C
:100500008F4F9F4F9923A9F0F92F96E9BB27939519
:10051000F695879577956795B795F111F8CFFAF429
:10052000BB0F11F460FF1BC06F5F7F4F8F4F9F4F5A
:1005300016C0882311F096E911C0772321F09EE8B8
:10054000872F762F05C0662371F096E8862F70E01E
:1005500060E02AF09A95660F771F881FDAF7880FF8
:100560009695879597F9089597F99F6780E870E0C9
:1005700060E008959FEF80EC089500240A94161619
:10058000170618060906089500240A941216130681
:10059000140605060895092E0394000C11F488230F
:1005A00052F0BB0F40F4BF2B11F460FF04C06F5F2B
:1005B0007F4F8F4F9F4F089557FD9058440F551F01
:1005C00059F05F3F71F04795880F97FB991F61F0D5
:1005D0009F3F79F087950895121613061406551F4C
:1005E000F2CF4695F1DF08C0161617061806991FB8
:1005F000F1CF86957105610508940895E894BB27AD
:1006000066277727CB0197F908950AD0C4CFB5DFC5
:1006100028F0BADF18F0952309F0A6CFABCFEFCFC3
:10062000CBDFA8F39923D9F35523C9F3950F50E0F5
:10063000551FAA27EE27FF27BB270024089467959C
:1006400020F4E20FF31FB41F0A1E220F331F441FB2
:10065000AA1F6695A9F7779530F4F30FB41F0A1E09
:10066000121E08F46395330F441FAA1F221F7695AC
:1006700099F7879520F4B40F0A1E121E631F440FCA
:10068000AA1F221F331F8695A9F7862F712D602D73
:1006900011249F5750408AF0E1F088234AF0EE0F72
:1006A000FF1FBB1F661F771F881F91505040A9F77F
:1006B0009E3F510570F058CFA2CF5F3FECF3983EBC
:1006C000DCF3869577956795B795F795E7959F5FE6
:1006D000C1F7FE2B880F911D9695879597F9089580
:1006E000A0E0B0E0E5E7F3E089C0EC016881798142
:1006F0008A819B81611571058105910521F464E270
:1007000079ED8BE597E02DE133EF41E050E037D014
:1007100049015A0127EA31E440E050E044D0690140
:100720007A01C501B4012CEE34EF4FEF5FEF3BD0FF
:1007300089019A01D701C601800F911FA21FB31F23
:10074000B7FF03C00197A109B04888839983AA83A2
:10075000BB839F77CDB7DEB7ECE06CC0C1DF0895F7
:1007600080E690E0BDDF0895A0E0B0E080936000F7
:1007700090936100A0936200B09363000895052EEA
:1007800097FB16F400942CD057FD05D068D007FCD9
:1007900002D046F425C050954095309521953F4FA5
:1007A0004F4F5F4F089568940010E894A0E0B0E0C8
:1007B000EBEDF3E025C0EFEFE7F959016A015E23A5
:1007C000550FEE08FE2C87019B01AC019E23990F6B
:1007D000660B762FCB0165D0CDB7DEB7EAE02CC033
:1007E00090958095709561957F4F8F4F9F4F08959D
:1007F0002F923F924F925F926F927F928F929F9231
:10080000AF92BF92CF92DF92EF92FF920F931F931E
:10081000CF93DF93CDB7DEB7CA1BDB0B0FB6F894CF
:10082000DEBF0FBECDBF09942A88398848885F840F
:100830006E847D848C849B84AA84B984C884DF8080
:10084000EE80FD800C811B81AA81B981CE0FD11D64
:100850000FB6F894DEBF0FBECDBFED010895A1E243
:100860001A2EAA1BBB1BFD010DC0AA1FBB1FEE1F2A
:10087000FF1FA217B307E407F50720F0A21BB30B75
:10088000E40BF50B661F771F881F991F1A9469F7F1
:1008900060957095809590959B01AC01BD01CF014D
:1008A0000895DF93CF939F92A0E49A2E0024D00165
:1008B000E001F00116950795F794E794D794C79453
:1008C000B794A79448F41068A20FB31FC41FD51F94
:1008D000E61FF71F081E191E220F331F441F551F46
:1008E000661F771F881F991F9A9421F79D01AE01FB
:1008F000BF01C00111249F90CF91DF910895F8941A
:02090000FFCF27
:0409020001000000F0
:00000001FF
