:1000000010C02AC029C028C027C026C025C024C0CF
:1000100023C023C021C020C01FC01EC01DC01CC0E3
:100020001BC011241FBECFE5D2E0DEBFCDBF10E064
:10003000A4E6B0E001C01D92AF36B107E1F710E0D1
:10004000A0E6B0E0E2E1F4E002C005900D92A43633
:10005000B107D9F776D0DBC1D3CF1F920F920FB67D
:100060000F9211242F938F939F9312BE80916C0057
:100070008F5F8F7780936C0020916B0090916C0064
:1000800081E0921708F080E020916A0090916C0066
:10009000921710F492E001C090E0892B2091690042
:1000A00090916C00921710F494E001C090E0982BAE
:1000B0002091680080916C00821710F488E001C0E4
:1000C00080E0892B8BBB9F918F912F910F900FBE5A
:1000D0000F901F9018950F931F936E3721E07207B2
:1000E0008105910528F06D57714081099109F5CF7F
:1000F000603871058105910538F42FE7261B2093A0
:100100006B0060936A001AC08B019C0100581109B2
:10011000210931090F3711052105310540F42EEF72
:10012000261B20936A006F576093690007C02DE774
:10013000261B209369006E5F60936B001F910F91E7
:10014000089581E083BF82E089BF8FE086BF789405
:100150008ABB1BBA8FEF87BB18BA10926E00109241
:100160006D0081E090E088D010E000E0CCEFD1E0BD
:1001700083ED90E30197F1F700C00000612F70E07C
:1001800080E090E0A8DF101710F41F5FF1CF011797
:1001900010F41150EDCF6CD00E5FBE0102D0080FED
:1001A000E7CF97FB072E16F4009406D077FD08D012
:1001B0000BD007FC05D03EF4909581959F4F089594
:1001C000709561957F4F0895AA1BBB1B51E107C035
:1001D000AA1FBB1FA617B70710F0A61BB70B881FD7
:1001E000991F5A95A9F780959095BC01CD01089566
:1001F000A0E0B0E0EDEFF0E089C0EC01688179812A
:100200008A819B81611571058105910521F464E264
:1002100079ED8BE597E02DE133EF41E050E037D009
:1002200049015A0127EA31E440E050E044D0690135
:100230007A01C501B4012CEE34EF4FEF5FEF3BD0F4
:1002400089019A01D701C601800F911FA21FB31F18
:10025000B7FF03C00197A109B04888839983AA8397
:10026000BB839F77CDB7DEB7ECE06CC0C1DF0895EC
:1002700080E690E0BDDF0895A0E0B0E080936000EC
:1002800090936100A0936200B09363000895052EDF
:1002900097FB16F400942CD057FD05D068D007FCCE
:1002A00002D046F425C050954095309521953F4F9A
:1002B0004F4F5F4F089568940010E894A0E0B0E0BD
:1002C000E3E6F1E025C0EFEFE7F959016A015E23AB
:1002D000550FEE08FE2C87019B01AC019E23990F60
:1002E000660B762FCB0165D0CDB7DEB7EAE02CC028
:1002F00090958095709561957F4F8F4F9F4F089592
:100300002F923F924F925F926F927F928F929F9225
:10031000AF92BF92CF92DF92EF92FF920F931F9313
:10032000CF93DF93CDB7DEB7CA1BDB0B0FB6F894C4
:10033000DEBF0FBECDBF09942A88398848885F8404
:100340006E847D848C849B84AA84B984C884DF8075
:10035000EE80FD800C811B81AA81B981CE0FD11D59
:100360000FB6F894DEBF0FBECDBFED010895A1E238
:100370001A2EAA1BBB1BFD010DC0AA1FBB1FEE1F1F
:10038000FF1FA217B307E407F50720F0A21BB30B6A
:10039000E40BF50B661F771F881F991F1A9469F7E6
:1003A00060957095809590959B01AC01BD01CF0142
:1003B0000895DF93CF939F92A0E49A2E0024D0015A
:1003C000E001F00116950795F794E794D794C79448
:1003D000B794A79448F41068A20FB31FC41FD51F89
:1003E000E61FF71F081E191E220F331F441F551F3B
:1003F000661F771F881F991F9A9421F79D01AE01F0
:10040000BF01C00111249F90CF91DF910895F8940E
:02041000FFCF1C
:0404120001000000E5
:00000001FF
