:1000000010C02AC029C028C027C026C025C024C0CF
:1000100023C061C121C020C01FC01EC01DC01CC0A4
:100020001BC011241FBECFE5D2E0DEBFCDBF10E064
:10003000A8E6B0E001C01D92A138B107E1F710E0D9
:10004000A0E6B0E0E2ECF0E102C005900D92A83627
:10005000B107D9F7CDD733C8D3CF80916C008F5F6C
:1000600080936C0020916B0091E0821708F090E083
:1000700020916A00821710F422E001C020E0292BB1
:1000800090916900891710F494E001C090E0922BE0
:1000900020916800821710F488E001C080E0892B6D
:1000A0008BBB08954F925F926F927F928F929F9237
:1000B000AF92BF92CF92DF92EF92FF920F931F9376
:1000C000CF93DF936B017C01C42F06C08DEFC81A5C
:1000D00082E0D80AE108F1088EEFC81682E0D8065F
:1000E000E104F10498F78FEFC816D104E104F1049C
:1000F00009F0E8F46FEF70E080E090E06C197D09A2
:100100008E099F0969D560936D0070936E0080938E
:100110006F0090937000C701B6015ED560937100C7
:100120007093720080937300909374004BC0D7015A
:10013000C6019150A109B1098F3F9105A105B105F3
:1001400008F56EEF71E080E090E06C197D098E0992
:100150009F0942D560937100709372008093730081
:1001600090937400C701B6016F5F7109810991090D
:1001700033D56093750070937600809377009093E9
:10018000780020C06DEF72E080E090E06C197D098E
:100190008E099F0921D56093750070937600809336
:1001A000770090937800C701B6016E5F71408109B6
:1001B000910912D560936D0070936E0080936F006B
:1001C000909370006C2F70E080E090E061D42B0180
:1001D0003C0120916D0030916E0040916F00509174
:1001E0007000AED220E030E04FE753E489D34B01FA
:1001F000D82FC92F9E01862F992DA32FB22F809320
:100200006D0090936E00A0936F00B09370002091EA
:100210007100309172004091730050917400C301DD
:10022000B2018ED220E030E04FE753E469D36B0196
:100230007C01862F9D2DAE2DBF2D80937100909354
:100240007200A0937300B0937400209175003091F8
:1002500076004091770050917800C301B20170D2CE
:1002600020E030E04FE753E44BD35B018C01982F43
:100270004A2D5B2D692F712F4093750050937600A6
:1002800060937700709378009E01682D792D832FFD
:10029000922F83D060936B006C2D7D2D8E2D9F2D22
:1002A0007CD060936A006A2D7B2D802F912F75D0B2
:1002B00060936900DF91CF911F910F91FF90EF90B4
:1002C000DF90CF90BF90AF909F908F907F906F9076
:1002D0005F904F9008951F920F920FB60F921124C6
:1002E000CF92DF92EF92FF922F933F934F935F93C2
:1002F0006F937F938F939F93AF93BF93EF93FF93EE
:100300008091790090917A00A0917B00B0917C005F
:100310000196A11DB11D8093790090937A00A0935E
:100320007B00B0937C000B97A105B10508F1C0904C
:100330007D00D0907E00E0907F00F09080004FEF35
:10034000C701B601AFDE8FEFC81AD80AE80AF80A6B
:10035000C0927D00D0927E00E0927F00F0928000FB
:100360001092790010927A0010927B0010927C001B
:10037000FF91EF91BF91AF919F918F917F916F917D
:100380005F914F913F912F91FF90EF90DF90CF9031
:100390000F900FBE0F901F901895CF92DF92EF92A3
:1003A000FF920F931F936B017C0120E030E040E04F
:1003B0005FE444D387FD0CC020E030E040E05FE420
:1003C000C701B60193D1BCD38B019C01305805C045
:1003D000C701B601B5D38B019C01B801C9011F91BA
:1003E0000F91FF90EF90DF90CF900895A4E0B0E0E0
:1003F000EBEFF1E016C67C016A01FC0180818230DE
:1004000008F44AC1FB019081923008F442C1843063
:1004100079F4943009F040C1F7019181FB018181A9
:10042000981709F439C1A0E6EA2EA0E0FA2E34C1EB
:10043000943009F42EC1923091F4823009F02CC12D
:1004400088E0F701DA0101900D928A95E1F7FB014E
:100450008181F70191818923FA0181831CC1823056
:1004600009F417C1F70182819381FB01A281B38155
:10047000F7010481158126813781FB0184809580F5
:10048000A680B780FC01EA1BFB0BAF01F7FF04C09D
:10049000442755274E1B5F0B403251050CF074C0AA
:1004A0001E161F06B4F524013501042E04C07694EF
:1004B0006794579447940A94D2F749825A826B8280
:1004C0007C82412C512C3201439404C0440C551CB5
:1004D000661C771C4A95D2F741E0441A510861081E
:1004E0007108482059206A207B20812C912C5401CE
:1004F000839445284628472819F4812C912C5401CF
:1005000049805A806B807C8084289528A628B7284B
:1005100046C0EF2B09F443C0840F951F2801390111
:10052000042E04C076946794579447940A94D2F7A3
:1005300049825A826B827C82412C512C3201439435
:1005400004C0440C551C661C771C4A95D2F741E048
:10055000441A510861087108402251226222732214
:1005600001E010E020E030E045284628472819F453
:1005700000E010E0980149805A806B807C8004295B
:100580001529262937290BC0A817B90724F4812C6F
:10059000912C540104C0CD0100E010E09801F70156
:1005A0004181FB015181451709F446C0442349F0BC
:1005B00024013501401A510A620A730A930182012B
:1005C00004C0081919092A093B0937FD05C0F601BD
:1005D0001182938382830CC041E0F60141839383AF
:1005E000828330952095109501951F4F2F4F3F4FD7
:1005F00004831583268337830EC0880F991FAA1F93
:10060000BB1FF60184839583A683B7838281938180
:10061000019793838283F60184819581A681B781B6
:10062000AC01BD0141505109610971094F3F5F4F54
:100630006F4F7F4310F30CC0F60141839383828395
:10064000080D191D2A1D3B1D04831583268337833E
:1006500083E0F6018083448155816681778177FF4D
:100660001AC0DB01CA0181709927AA27BB2776959A
:10067000679557954795842B952BA62BB72B84838D
:100680009583A683B7838281938101969383828326
:1006900002C07B0101C07601C7012496E0E1DDC400
:1006A000A0E2B0E0E5E5F3E0CAC46D8F7E8F8F8FE6
:1006B00098A3298F3A8F4B8F5C8FBE016F5E7F4F5F
:1006C000CE014D96C5D3BE01675F7F4FCE014996DF
:1006D000BFD3AE014F5F5F4FBE01675F7F4FCE015B
:1006E000419684DEEBD2A096E2E0C5C4A0E2B0E081
:1006F000EBE7F3E0A4C46D8F7E8F8F8F98A3298FD3
:100700003A8F4B8F5C8FBE016F5E7F4FCE014D964F
:100710009FD3BE01675F7F4FCE01499699D38A85EB
:1007200091E089278A87AE014F5F5F4FBE01675F07
:100730007F4FCE0141965ADEC1D2A096E2E09BC423
:10074000A0E2B0E0E5EAF3E06CC46D8F7E8F8F8F9E
:1007500098A3298F3A8F4B8F5C8FBE016F5E7F4FBE
:10076000CE014D9675D3BE01675F7F4FCE0149968E
:100770006FD39989923008F412C08985823008F4C9
:100780001AC0943021F4823009F4B4C008C0843017
:1007900021F4923009F4AEC00EC0923051F481E0E1
:1007A0002A899A85291301C080E08A8BCE0141965F
:1007B000A3C0823051F481E02A899A85291301C0AF
:1007C00080E08A87CE01099697C08D889E88AF8881
:1007D000B88C0D851E852F853889E0E2F0E080E039
:1007E00090E0DC01C12CD12C760140E050E0BA0150
:1007F00080FE18C0400F511F621F731F8C0D9D1D7E
:10080000AE1DBF1D412C512C32014394401751079E
:100810006207730718F0412C512C3201840D951D8D
:10082000A61DB71DCC0CDD1CEE1CFF1C37FF02C043
:100830006894C0F8000F111F221F331FB694A794AD
:10084000979487943197A1F62B893C89EB85FC8599
:100850002E0F3F1F2E5F3F4F3C832B8321E0EA8901
:100860003A85E31301C020E02A83EB81FC810CC0B0
:1008700080FF05C076956795579547957068B69542
:10088000A795979587953196B7FDF2CF9F010CC03C
:10089000880F991FAA1FBB1F77FD8160440F551F4A
:1008A000661F771F215031090097A105E0E4BE07BC
:1008B00078F32B833C838C019D010F77112722272E
:1008C0003327003411052105310559F487FD09C08E
:1008D000452B462B472B29F0805C9F4FAF4FBF4FD6
:1008E00080788D839E83AF83B88783E08983CE0130
:1008F000019602C080E690E0E1D1A096E0E1ADC3B0
:10090000A8E1B0E0E5E8F4E094C36D8B7E8B8F8BBB
:10091000988F298B3A8B4B8B5C8BBE01675F7F4F27
:10092000CE01459695D2BE016F5F7F4FCE014196B5
:100930008FD29985923008F475C08981823008F48D
:1009400074C02A853A8123272A87943011F0923087
:1009500019F4981367C06CC0843039F41D861E8664
:100960001F86188A1C861B8604C0823029F484E006
:100970008987CE0109965EC08B859C852B813C8141
:10098000821B930B9C878B874D855E856F8578894D
:10099000CD80DE80EF80F8844C155D056E057F0507
:1009A00038F4440F551F661F771F01979C878B876C
:1009B000EFE1F0E000E010E020E030E480E090E0E3
:1009C000DC014C155D056E057F0540F0802B912BF9
:1009D000A22BB32B4C195D096E097F09369527951B
:1009E00017950795440F551F661F771F319749F7D5
:1009F0008C019D010F771127222733270034110521
:100A00002105310559F487FD09C0452B462B472B9D
:100A100029F0805C9F4FAF4FBF4F80788D879E87B6
:100A2000AF87B88BCE01099605C0CE01019602C0F2
:100A300080E690E043D16896E8E017C3A8E1B0E013
:100A4000E3E2F5E0FCC26D8B7E8B8F8B988F298B58
:100A50003A8B4B8B5C8BBE01675F7F4FCE01459617
:100A6000F7D1BE016F5F7F4FCE014196F1D18985ED
:100A7000823050F08981823038F0BE016F5F7F4F45
:100A8000CE01099654D201C08FEF6896E2E0F3C21E
:100A9000A8E0B0E0EDE4F5E0D0C223E029838B01CB
:100AA0009C01002737FD0395112722273327402F6C
:100AB0000A83611571058105910519F482E0898326
:100AC00034C02EE130E03C832B83442371F0611568
:100AD0007105810520E8920761F10027112798012F
:100AE000061B170B280B390B02C08B019C01C90197
:100AF000B801CCD20197181619062CF00D831E836D
:100B00002F83388712C0082E04C0000F111F221F28
:100B1000331F0A94D2F70D831E832F8338872EE16B
:100B200030E0281B390B3C832B83CE010196C6D0C5
:100B300004C060E070E080E09FEC2896E4E099C299
:100B4000ACE0B0E0E5EAF5E078C269877A878B87A8
:100B50009C87BE016F5F7F4FCE01099679D1898155
:100B6000823091F1823080F1843041F48A8188238F
:100B700031F100E010E020E030E829C02B813C8119
:100B800037FD22C02F3131058CF78EE190E0821BBA
:100B9000930B0D811E812F81388504C036952795D2
:100BA000179507958A95D2F78A81882381F0309529
:100BB0002095109501951F4F2F4F3F4F08C00FEF05
:100BC0001FEF2FEF3FE703C000E010E09801B801EE
:100BD000C9012C96E4E04DC2A8E0B0E0E1EFF5E0F9
:100BE00028C28B019C011A8261157105810591054E
:100BF00019F482E089835CC083E089834EE150E090
:100C00005C834B83C901B80141D2019797FF39C07A
:100C1000EE27FF27E81BF90B41E050E060E070E0B1
:100C20000E2E04C0440F551F661F771F0A94D2F77B
:100C300041505109610971094023512362237323F3
:100C4000C12CD12C7601C394452B462B472B19F48C
:100C5000C12CD12C760104C03695279517950795A0
:100C6000EA95D2F70C291D292E293F290D831E83D1
:100C70002F8338872EE130E0281B390B3C832B83F0
:100C800017C0009729F40D831E832F83388710C067
:100C9000082E04C0000F111F221F331F0A94D2F721
:100CA0000D831E832F833887481B590B5C834B832E
:100CB000CE01019603D02896E8E0D7C10F931F9389
:100CC000CF93DF93DC0114964D915D916D917C91F2
:100CD00017971196EC9111978C91823020F46061F6
:100CE0008FEF90E0A6C0843009F49EC0823009F4F2
:100CF00095C0411551056105710509F492C0129620
:100D00002D913C91139722388FEF38070CF058C083
:100D1000C2E8DFEFC21BD30BCA31D1056CF58A01E3
:100D20009B010C2E04C036952795179507950A94BC
:100D3000D2F781E090E0A0E0B0E00C2E04C0880F74
:100D4000991FAA1FBB1F0A94D2F70197A109B109E5
:100D500084239523A623B72341E050E060E070E0B0
:100D6000892B8A2B8B2B19F440E050E0BA01402BE1
:100D7000512B622B732B03C040E050E0BA01DB0122
:100D8000CA018F779927AA27BB2780349105A1052F
:100D9000B10539F447FF09C0405C5F4F6F4F7F4F8B
:100DA00004C0415C5F4F6F4F7F4F81E090E0411581
:100DB0005105610520E4720748F580E090E026C007
:100DC000203831058CF5DB01CA018F779927AA27D6
:100DD000BB2780349105A105B10539F447FF09C04F
:100DE000405C5F4F6F4F7F4F04C0415C5F4F6F4F60
:100DF0007F4F77FD04C0C90181589F4F07C076958A
:100E0000679557954795C90180589F4F97E076950C
:100E10006795579547959A95D1F70BC080E090E07C
:100E200005C080E090E005C08FEF90E040E050E02A
:100E3000BA01982F9695E0FB97F9362F80FB37F98A
:100E4000642F752F832FDF91CF911F910F910895FC
:100E5000CF92DF92EF92DC01FB01CC901196DC90F7
:100E6000119712968C9112973FE7E32EE8226E2D90
:100E7000A60170E0982F991F9927991F13962C911E
:100E8000822F880F892B90E027FB222720F92183CE
:100E9000009729F5411551056105710511F482E0AE
:100EA00027C082E89FEF9383828327E0440F551F7A
:100EB000661F771F2A95D1F783E0808309C0440F0E
:100EC000551F661F771F82819381019793838283C9
:100ED00041155105610580E4780788F320C08F3FF4
:100EE000910579F4411551056105710519F484E006
:100EF000808319C0E4FE03C081E0808310C01082AB
:100F00000EC08F5791099383828383E0808387E0AB
:100F1000440F551F661F771F8A95D1F7706444836D
:100F2000558366837783EF90DF90CF900895CF93BA
:100F3000FC01DB019081923008F452C08C91823028
:100F400008F44EC0943071F4843039F411962C9129
:100F500030E08181281B310948C08181882309F450
:100F60003FC03BC0843029F411968C91811138C068
:100F700034C0923019F48230B9F735C0823069F349
:100F8000C18111968C911197C8131DC022813381A4
:100F900012968D919C911397821793070CF413C0AE
:100FA000281739070CF417C0448155816681778171
:100FB00014968D919D910D90BC91A02D841795074D
:100FC000A607B70718F4C11108C00AC04817590787
:100FD0006A077B0740F4C11103C02FEF3FEF05C044
:100FE00021E030E002C020E030E0C901CF91089557
:100FF00085E083BF82E089BF9FEF96BF8AB38F6091
:101000008ABB8BB3807F8BBB97BB18BA78944FEFAA
:1010100062E371E080E090E045D81FD8FECF2F92C8
:101020003F924F925F926F927F928F929F92AF9278
:10103000BF92CF92DF92EF92FF920F931F93CF93C5
:10104000DF93CDB7DEB7CA1BDB0B0FB6F894DEBF5C
:101050000FBECDBF09942A88398848885F846E8482
:101060007D848C849B84AA84B984C884DF80EE80CC
:10107000FD800C811B81AA81B981CE0FD11D0FB6D5
:10108000F894DEBF0FBECDBFED01089506D084FFFA
:101090000895CB0102D0805F0895AA27992329F4EF
:1010A000A85F982B11F480E10895903118F4AD5F9A
:1010B0009295A395990FE8F78A2F99270895F894A8
:0210C000FFCF60
:0810C200000000000000000026
:00000001FF
